{
  "_format": "hh-sol-artifact-1",
  "contractName": "NFTMarketplace",
  "sourceName": "contracts/NFTMarketplace.sol",
  "abi": [
    {
      "inputs": [],
      "stateMutability": "nonpayable",
      "type": "constructor"
    },
    {
      "anonymous": false,
      "inputs": [
        {
          "indexed": true,
          "internalType": "address",
          "name": "owner",
          "type": "address"
        },
        {
          "indexed": true,
          "internalType": "address",
          "name": "approved",
          "type": "address"
        },
        {
          "indexed": true,
          "internalType": "uint256",
          "name": "tokenId",
          "type": "uint256"
        }
      ],
      "name": "Approval",
      "type": "event"
    },
    {
      "anonymous": false,
      "inputs": [
        {
          "indexed": true,
          "internalType": "address",
          "name": "owner",
          "type": "address"
        },
        {
          "indexed": true,
          "internalType": "address",
          "name": "operator",
          "type": "address"
        },
        {
          "indexed": false,
          "internalType": "bool",
          "name": "approved",
          "type": "bool"
        }
      ],
      "name": "ApprovalForAll",
      "type": "event"
    },
    {
      "anonymous": false,
      "inputs": [
        {
          "indexed": true,
          "internalType": "uint256",
          "name": "tokenId",
          "type": "uint256"
        },
        {
          "indexed": false,
          "internalType": "address",
          "name": "seller",
          "type": "address"
        },
        {
          "indexed": false,
          "internalType": "address",
          "name": "owner",
          "type": "address"
        },
        {
          "indexed": false,
          "internalType": "uint256",
          "name": "price",
          "type": "uint256"
        },
        {
          "indexed": false,
          "internalType": "bool",
          "name": "sold",
          "type": "bool"
        }
      ],
      "name": "MarketItemCreated",
      "type": "event"
    },
    {
      "anonymous": false,
      "inputs": [
        {
          "indexed": true,
          "internalType": "address",
          "name": "from",
          "type": "address"
        },
        {
          "indexed": true,
          "internalType": "address",
          "name": "to",
          "type": "address"
        },
        {
          "indexed": true,
          "internalType": "uint256",
          "name": "tokenId",
          "type": "uint256"
        }
      ],
      "name": "Transfer",
      "type": "event"
    },
    {
      "inputs": [
        {
          "internalType": "address",
          "name": "to",
          "type": "address"
        },
        {
          "internalType": "uint256",
          "name": "tokenId",
          "type": "uint256"
        }
      ],
      "name": "approve",
      "outputs": [],
      "stateMutability": "nonpayable",
      "type": "function"
    },
    {
      "inputs": [
        {
          "internalType": "address",
          "name": "owner",
          "type": "address"
        }
      ],
      "name": "balanceOf",
      "outputs": [
        {
          "internalType": "uint256",
          "name": "",
          "type": "uint256"
        }
      ],
      "stateMutability": "view",
      "type": "function"
    },
    {
      "inputs": [
        {
          "internalType": "uint256",
          "name": "tokenId",
          "type": "uint256"
        }
      ],
      "name": "createMarketSale",
      "outputs": [],
      "stateMutability": "payable",
      "type": "function"
    },
    {
      "inputs": [
        {
          "internalType": "string",
          "name": "tokenURI",
          "type": "string"
        },
        {
          "internalType": "uint256",
          "name": "price",
          "type": "uint256"
        }
      ],
      "name": "createToken",
      "outputs": [
        {
          "internalType": "uint256",
          "name": "",
          "type": "uint256"
        }
      ],
      "stateMutability": "payable",
      "type": "function"
    },
    {
      "inputs": [
        {
          "internalType": "address payable",
          "name": "userAddress",
          "type": "address"
        }
      ],
      "name": "fetchAllNFTsFromUser",
      "outputs": [
        {
          "components": [
            {
              "internalType": "uint256",
              "name": "tokenId",
              "type": "uint256"
            },
            {
              "internalType": "address payable",
              "name": "seller",
              "type": "address"
            },
            {
              "internalType": "address payable",
              "name": "owner",
              "type": "address"
            },
            {
              "internalType": "uint256",
              "name": "price",
              "type": "uint256"
            },
            {
              "internalType": "bool",
              "name": "sold",
              "type": "bool"
            }
          ],
          "internalType": "struct NFTMarketplace.MarketItem[]",
          "name": "",
          "type": "tuple[]"
        }
      ],
      "stateMutability": "view",
      "type": "function"
    },
    {
      "inputs": [],
      "name": "fetchItemsListed",
      "outputs": [
        {
          "components": [
            {
              "internalType": "uint256",
              "name": "tokenId",
              "type": "uint256"
            },
            {
              "internalType": "address payable",
              "name": "seller",
              "type": "address"
            },
            {
              "internalType": "address payable",
              "name": "owner",
              "type": "address"
            },
            {
              "internalType": "uint256",
              "name": "price",
              "type": "uint256"
            },
            {
              "internalType": "bool",
              "name": "sold",
              "type": "bool"
            }
          ],
          "internalType": "struct NFTMarketplace.MarketItem[]",
          "name": "",
          "type": "tuple[]"
        }
      ],
      "stateMutability": "view",
      "type": "function"
    },
    {
      "inputs": [
        {
          "internalType": "uint256",
          "name": "itemId",
          "type": "uint256"
        }
      ],
      "name": "fetchMarketItem",
      "outputs": [
        {
          "components": [
            {
              "internalType": "uint256",
              "name": "tokenId",
              "type": "uint256"
            },
            {
              "internalType": "address payable",
              "name": "seller",
              "type": "address"
            },
            {
              "internalType": "address payable",
              "name": "owner",
              "type": "address"
            },
            {
              "internalType": "uint256",
              "name": "price",
              "type": "uint256"
            },
            {
              "internalType": "bool",
              "name": "sold",
              "type": "bool"
            }
          ],
          "internalType": "struct NFTMarketplace.MarketItem",
          "name": "",
          "type": "tuple"
        }
      ],
      "stateMutability": "view",
      "type": "function"
    },
    {
      "inputs": [],
      "name": "fetchMarketItems",
      "outputs": [
        {
          "components": [
            {
              "internalType": "uint256",
              "name": "tokenId",
              "type": "uint256"
            },
            {
              "internalType": "address payable",
              "name": "seller",
              "type": "address"
            },
            {
              "internalType": "address payable",
              "name": "owner",
              "type": "address"
            },
            {
              "internalType": "uint256",
              "name": "price",
              "type": "uint256"
            },
            {
              "internalType": "bool",
              "name": "sold",
              "type": "bool"
            }
          ],
          "internalType": "struct NFTMarketplace.MarketItem[]",
          "name": "",
          "type": "tuple[]"
        }
      ],
      "stateMutability": "view",
      "type": "function"
    },
    {
      "inputs": [],
      "name": "fetchMyNFTs",
      "outputs": [
        {
          "components": [
            {
              "internalType": "uint256",
              "name": "tokenId",
              "type": "uint256"
            },
            {
              "internalType": "address payable",
              "name": "seller",
              "type": "address"
            },
            {
              "internalType": "address payable",
              "name": "owner",
              "type": "address"
            },
            {
              "internalType": "uint256",
              "name": "price",
              "type": "uint256"
            },
            {
              "internalType": "bool",
              "name": "sold",
              "type": "bool"
            }
          ],
          "internalType": "struct NFTMarketplace.MarketItem[]",
          "name": "",
          "type": "tuple[]"
        }
      ],
      "stateMutability": "view",
      "type": "function"
    },
    {
      "inputs": [
        {
          "internalType": "uint256",
          "name": "tokenId",
          "type": "uint256"
        }
      ],
      "name": "getApproved",
      "outputs": [
        {
          "internalType": "address",
          "name": "",
          "type": "address"
        }
      ],
      "stateMutability": "view",
      "type": "function"
    },
    {
      "inputs": [],
      "name": "getListingPrice",
      "outputs": [
        {
          "internalType": "uint256",
          "name": "",
          "type": "uint256"
        }
      ],
      "stateMutability": "view",
      "type": "function"
    },
    {
      "inputs": [
        {
          "internalType": "address",
          "name": "owner",
          "type": "address"
        },
        {
          "internalType": "address",
          "name": "operator",
          "type": "address"
        }
      ],
      "name": "isApprovedForAll",
      "outputs": [
        {
          "internalType": "bool",
          "name": "",
          "type": "bool"
        }
      ],
      "stateMutability": "view",
      "type": "function"
    },
    {
      "inputs": [],
      "name": "name",
      "outputs": [
        {
          "internalType": "string",
          "name": "",
          "type": "string"
        }
      ],
      "stateMutability": "view",
      "type": "function"
    },
    {
      "inputs": [
        {
          "internalType": "uint256",
          "name": "tokenId",
          "type": "uint256"
        }
      ],
      "name": "ownerOf",
      "outputs": [
        {
          "internalType": "address",
          "name": "",
          "type": "address"
        }
      ],
      "stateMutability": "view",
      "type": "function"
    },
    {
      "inputs": [
        {
          "internalType": "uint256",
          "name": "tokenId",
          "type": "uint256"
        },
        {
          "internalType": "uint256",
          "name": "price",
          "type": "uint256"
        }
      ],
      "name": "resellToken",
      "outputs": [],
      "stateMutability": "payable",
      "type": "function"
    },
    {
      "inputs": [
        {
          "internalType": "address",
          "name": "from",
          "type": "address"
        },
        {
          "internalType": "address",
          "name": "to",
          "type": "address"
        },
        {
          "internalType": "uint256",
          "name": "tokenId",
          "type": "uint256"
        }
      ],
      "name": "safeTransferFrom",
      "outputs": [],
      "stateMutability": "nonpayable",
      "type": "function"
    },
    {
      "inputs": [
        {
          "internalType": "address",
          "name": "from",
          "type": "address"
        },
        {
          "internalType": "address",
          "name": "to",
          "type": "address"
        },
        {
          "internalType": "uint256",
          "name": "tokenId",
          "type": "uint256"
        },
        {
          "internalType": "bytes",
          "name": "_data",
          "type": "bytes"
        }
      ],
      "name": "safeTransferFrom",
      "outputs": [],
      "stateMutability": "nonpayable",
      "type": "function"
    },
    {
      "inputs": [
        {
          "internalType": "address",
          "name": "operator",
          "type": "address"
        },
        {
          "internalType": "bool",
          "name": "approved",
          "type": "bool"
        }
      ],
      "name": "setApprovalForAll",
      "outputs": [],
      "stateMutability": "nonpayable",
      "type": "function"
    },
    {
      "inputs": [
        {
          "internalType": "bytes4",
          "name": "interfaceId",
          "type": "bytes4"
        }
      ],
      "name": "supportsInterface",
      "outputs": [
        {
          "internalType": "bool",
          "name": "",
          "type": "bool"
        }
      ],
      "stateMutability": "view",
      "type": "function"
    },
    {
      "inputs": [],
      "name": "symbol",
      "outputs": [
        {
          "internalType": "string",
          "name": "",
          "type": "string"
        }
      ],
      "stateMutability": "view",
      "type": "function"
    },
    {
      "inputs": [
        {
          "internalType": "uint256",
          "name": "tokenId",
          "type": "uint256"
        }
      ],
      "name": "tokenURI",
      "outputs": [
        {
          "internalType": "string",
          "name": "",
          "type": "string"
        }
      ],
      "stateMutability": "view",
      "type": "function"
    },
    {
      "inputs": [
        {
          "internalType": "address",
          "name": "from",
          "type": "address"
        },
        {
          "internalType": "address",
          "name": "to",
          "type": "address"
        },
        {
          "internalType": "uint256",
          "name": "tokenId",
          "type": "uint256"
        }
      ],
      "name": "transferFrom",
      "outputs": [],
      "stateMutability": "nonpayable",
      "type": "function"
    },
    {
      "inputs": [
        {
          "internalType": "uint256",
          "name": "tokenId",
          "type": "uint256"
        }
      ],
      "name": "unlistToken",
      "outputs": [],
      "stateMutability": "payable",
      "type": "function"
    },
    {
      "inputs": [
        {
          "internalType": "uint256",
          "name": "_listingPrice",
          "type": "uint256"
        }
      ],
      "name": "updateListingPrice",
      "outputs": [],
      "stateMutability": "payable",
      "type": "function"
    }
  ],
  "bytecode": "0x60806040526658d15e176280006009553480156200001c57600080fd5b50604080518082018252601081526f4d657461766572736520546f6b656e7360801b6020808301918252835180850190945260048452631351551560e21b9084015281519192916200007191600091620000a2565b50805162000087906001906020840190620000a2565b5050600a80546001600160a01b031916331790555062000185565b828054620000b09062000148565b90600052602060002090601f016020900481019282620000d457600085556200011f565b82601f10620000ef57805160ff19168380011785556200011f565b828001600101855582156200011f579182015b828111156200011f57825182559160200191906001019062000102565b506200012d92915062000131565b5090565b5b808211156200012d576000815560010162000132565b600181811c908216806200015d57607f821691505b602082108114156200017f57634e487b7160e01b600052602260045260246000fd5b50919050565b61274c80620001956000396000f3fe60806040526004361061014b5760003560e01c80636352211e116100b6578063ae677aa31161006f578063ae677aa314610394578063b88d4fde146103a7578063be9af536146103c7578063c87b56dd146103da578063e219fc75146103fa578063e985e9c51461040d57600080fd5b80636352211e146102f957806370a082311461031957806372b3b6201461033957806395d89b411461034c578063a22cb46514610361578063ad3a358c1461038157600080fd5b806312e855851161010857806312e8558514610243578063202e37401461026257806323b872dd146102775780632a45b2501461029757806342842e0e146102c457806345f8fa80146102e457600080fd5b806301ffc9a71461015057806306fdde0314610185578063081812fc146101a7578063095ea7b3146101df5780630f08efe014610201578063117c00c614610223575b600080fd5b34801561015c57600080fd5b5061017061016b366004612291565b610456565b60405190151581526020015b60405180910390f35b34801561019157600080fd5b5061019a6104a8565b60405161017c919061247e565b3480156101b357600080fd5b506101c76101c236600461231f565b61053a565b6040516001600160a01b03909116815260200161017c565b3480156101eb57600080fd5b506101ff6101fa366004612266565b6105c7565b005b34801561020d57600080fd5b506102166106dd565b60405161017c9190612430565b34801561022f57600080fd5b5061021661023e366004612124565b610871565b34801561024f57600080fd5b506009545b60405190815260200161017c565b34801561026e57600080fd5b50610216610adb565b34801561028357600080fd5b506101ff610292366004612178565b610cad565b3480156102a357600080fd5b506102b76102b236600461231f565b610cde565b60405161017c91906125c2565b3480156102d057600080fd5b506101ff6102df366004612178565b610d48565b3480156102f057600080fd5b50610216610d63565b34801561030557600080fd5b506101c761031436600461231f565b610f35565b34801561032557600080fd5b50610254610334366004612124565b610fac565b6102546103473660046122c9565b611033565b34801561035857600080fd5b5061019a611075565b34801561036d57600080fd5b506101ff61037c366004612235565b611084565b6101ff61038f36600461231f565b611093565b6101ff6103a236600461231f565b61112b565b3480156103b357600080fd5b506101ff6103c23660046121b8565b6111a3565b6101ff6103d536600461231f565b6111db565b3480156103e657600080fd5b5061019a6103f536600461231f565b611340565b6101ff610408366004612337565b6114b7565b34801561041957600080fd5b50610170610428366004612140565b6001600160a01b03918216600090815260056020908152604080832093909416825291909152205460ff1690565b60006001600160e01b031982166380ac58cd60e01b148061048757506001600160e01b03198216635b5e139f60e01b145b806104a257506301ffc9a760e01b6001600160e01b03198316145b92915050565b6060600080546104b79061263f565b80601f01602080910402602001604051908101604052809291908181526020018280546104e39061263f565b80156105305780601f1061050557610100808354040283529160200191610530565b820191906000526020600020905b81548152906001019060200180831161051357829003601f168201915b5050505050905090565b60006105458261156c565b6105ab5760405162461bcd60e51b815260206004820152602c60248201527f4552433732313a20617070726f76656420717565727920666f72206e6f6e657860448201526b34b9ba32b73a103a37b5b2b760a11b60648201526084015b60405180910390fd5b506000908152600460205260409020546001600160a01b031690565b60006105d282610f35565b9050806001600160a01b0316836001600160a01b031614156106405760405162461bcd60e51b815260206004820152602160248201527f4552433732313a20617070726f76616c20746f2063757272656e74206f776e656044820152603960f91b60648201526084016105a2565b336001600160a01b038216148061065c575061065c8133610428565b6106ce5760405162461bcd60e51b815260206004820152603860248201527f4552433732313a20617070726f76652063616c6c6572206973206e6f74206f7760448201527f6e6572206e6f7220617070726f76656420666f7220616c6c000000000000000060648201526084016105a2565b6106d88383611589565b505050565b606060006106ea60075490565b905060006106f760085490565b60075461070491906125fc565b90506000808267ffffffffffffffff81111561073057634e487b7160e01b600052604160045260246000fd5b60405190808252806020026020018201604052801561076957816020015b610756611fe7565b81526020019060019003908161074e5790505b50905060005b848110156108685730600b60006107878460016125d0565b81526020810191909152604001600020600201546001600160a01b031614156108565760006107b78260016125d0565b6000818152600b6020908152604091829020825160a0810184528154815260018201546001600160a01b039081169382019390935260028201549092169282019290925260038201546060820152600482015460ff16151560808201528551929350909185908790811061083b57634e487b7160e01b600052603260045260246000fd5b60209081029190910101526108516001866125d0565b945050505b806108608161267a565b91505061076f565b50949350505050565b6060600061087e60075490565b905060008060005b83811015610928576001600160a01b038616600b60006108a78460016125d0565b81526020810191909152604001600020600201546001600160a01b0316148061090357506001600160a01b038616600b60006108e48460016125d0565b81526020810191909152604001600020600101546001600160a01b0316145b15610916576109136001846125d0565b92505b806109208161267a565b915050610886565b5060008267ffffffffffffffff81111561095257634e487b7160e01b600052604160045260246000fd5b60405190808252806020026020018201604052801561098b57816020015b610978611fe7565b8152602001906001900390816109705790505b50905060005b84811015610ad1576001600160a01b038716600b60006109b28460016125d0565b81526020810191909152604001600020600201546001600160a01b03161480610a0e57506001600160a01b038716600b60006109ef8460016125d0565b81526020810191909152604001600020600101546001600160a01b0316145b15610abf576000610a208260016125d0565b6000818152600b6020908152604091829020825160a0810184528154815260018201546001600160a01b039081169382019390935260028201549092169282019290925260038201546060820152600482015460ff161515608082015285519293509091859087908110610aa457634e487b7160e01b600052603260045260246000fd5b6020908102919091010152610aba6001866125d0565b945050505b80610ac98161267a565b915050610991565b5095945050505050565b60606000610ae860075490565b905060008060005b83811015610b4b5733600b6000610b088460016125d0565b81526020810191909152604001600020600201546001600160a01b03161415610b3957610b366001846125d0565b92505b80610b438161267a565b915050610af0565b5060008267ffffffffffffffff811115610b7557634e487b7160e01b600052604160045260246000fd5b604051908082528060200260200182016040528015610bae57816020015b610b9b611fe7565b815260200190600190039081610b935790505b50905060005b848110156108685733600b6000610bcc8460016125d0565b81526020810191909152604001600020600201546001600160a01b03161415610c9b576000610bfc8260016125d0565b6000818152600b6020908152604091829020825160a0810184528154815260018201546001600160a01b039081169382019390935260028201549092169282019290925260038201546060820152600482015460ff161515608082015285519293509091859087908110610c8057634e487b7160e01b600052603260045260246000fd5b6020908102919091010152610c966001866125d0565b945050505b80610ca58161267a565b915050610bb4565b610cb733826115f7565b610cd35760405162461bcd60e51b81526004016105a290612571565b6106d88383836116e0565b610ce6611fe7565b506000908152600b6020908152604091829020825160a0810184528154815260018201546001600160a01b03908116938201939093526002820154909216928201929092526003820154606082015260049091015460ff161515608082015290565b6106d8838383604051806020016040528060008152506111a3565b60606000610d7060075490565b905060008060005b83811015610dd35733600b6000610d908460016125d0565b81526020810191909152604001600020600101546001600160a01b03161415610dc157610dbe6001846125d0565b92505b80610dcb8161267a565b915050610d78565b5060008267ffffffffffffffff811115610dfd57634e487b7160e01b600052604160045260246000fd5b604051908082528060200260200182016040528015610e3657816020015b610e23611fe7565b815260200190600190039081610e1b5790505b50905060005b848110156108685733600b6000610e548460016125d0565b81526020810191909152604001600020600101546001600160a01b03161415610f23576000610e848260016125d0565b6000818152600b6020908152604091829020825160a0810184528154815260018201546001600160a01b039081169382019390935260028201549092169282019290925260038201546060820152600482015460ff161515608082015285519293509091859087908110610f0857634e487b7160e01b600052603260045260246000fd5b6020908102919091010152610f1e6001866125d0565b945050505b80610f2d8161267a565b915050610e3c565b6000818152600260205260408120546001600160a01b0316806104a25760405162461bcd60e51b815260206004820152602960248201527f4552433732313a206f776e657220717565727920666f72206e6f6e657869737460448201526832b73a103a37b5b2b760b91b60648201526084016105a2565b60006001600160a01b0382166110175760405162461bcd60e51b815260206004820152602a60248201527f4552433732313a2062616c616e636520717565727920666f7220746865207a65604482015269726f206164647265737360b01b60648201526084016105a2565b506001600160a01b031660009081526003602052604090205490565b6000611043600780546001019055565b600061104e60075490565b905061105a338261187c565b61106481856119af565b61106e8184611a3a565b9392505050565b6060600180546104b79061263f565b61108f338383611b90565b5050565b6000818152600b60205260409020600101546001600160a01b031633146110cc5760405162461bcd60e51b81526004016105a2906124e3565b6000818152600b6020526040902060048101805460ff19166001908117909155810180546001600160a01b03199081163017909155600290910180549091163317905561111d600880546001019055565b6111283033836116e0565b50565b600a546001600160a01b0316331461119e5760405162461bcd60e51b815260206004820152603060248201527f4f6e6c79206d61726b6574706c616365206f776e65722063616e20757064617460448201526f32903634b9ba34b73390383934b1b29760811b60648201526084016105a2565b600955565b6111ad33836115f7565b6111c95760405162461bcd60e51b81526004016105a290612571565b6111d584848484611c5f565b50505050565b6000818152600b6020526040902060038101546001909101546001600160a01b0316348214611274576040805162461bcd60e51b81526020600482015260248101919091527f506c65617365207375626d6974207468652061736b696e67207072696365206960448201527f6e206f7264657220746f20636f6d706c6574652074686520707572636861736560648201526084016105a2565b6000838152600b602052604090206002810180546001600160a01b0319908116331790915560048201805460ff19166001908117909155909101805490911690556112c3600880546001019055565b6112ce3033856116e0565b600a546009546040516001600160a01b039092169181156108fc0291906000818181858888f1935050505015801561130a573d6000803e3d6000fd5b506040516001600160a01b038216903480156108fc02916000818181858888f193505050501580156111d5573d6000803e3d6000fd5b606061134b8261156c565b6113b15760405162461bcd60e51b815260206004820152603160248201527f45524337323155524953746f726167653a2055524920717565727920666f72206044820152703737b732bc34b9ba32b73a103a37b5b2b760791b60648201526084016105a2565b600082815260066020526040812080546113ca9061263f565b80601f01602080910402602001604051908101604052809291908181526020018280546113f69061263f565b80156114435780601f1061141857610100808354040283529160200191611443565b820191906000526020600020905b81548152906001019060200180831161142657829003601f168201915b50505050509050600061146160408051602081019091526000815290565b9050805160001415611474575092915050565b8151156114a657808260405160200161148e9291906123c4565b60405160208183030381529060405292505050919050565b6114af84611c92565b949350505050565b6000828152600b60205260409020600201546001600160a01b031633146114f05760405162461bcd60e51b81526004016105a2906124e3565b60095434146115115760405162461bcd60e51b81526004016105a29061252d565b6000828152600b6020526040902060048101805460ff19169055600381018290556001810180546001600160a01b0319908116331790915560029091018054909116301790556115616008611d69565b61108f3330846116e0565b6000908152600260205260409020546001600160a01b0316151590565b600081815260046020526040902080546001600160a01b0319166001600160a01b03841690811790915581906115be82610f35565b6001600160a01b03167f8c5be1e5ebec7d5bd14f71427d1e84f3dd0314c0f7b2291e5b200ac8c7c3b92560405160405180910390a45050565b60006116028261156c565b6116635760405162461bcd60e51b815260206004820152602c60248201527f4552433732313a206f70657261746f7220717565727920666f72206e6f6e657860448201526b34b9ba32b73a103a37b5b2b760a11b60648201526084016105a2565b600061166e83610f35565b9050806001600160a01b0316846001600160a01b031614806116b557506001600160a01b0380821660009081526005602090815260408083209388168352929052205460ff165b806114af5750836001600160a01b03166116ce8461053a565b6001600160a01b031614949350505050565b826001600160a01b03166116f382610f35565b6001600160a01b0316146117575760405162461bcd60e51b815260206004820152602560248201527f4552433732313a207472616e736665722066726f6d20696e636f72726563742060448201526437bbb732b960d91b60648201526084016105a2565b6001600160a01b0382166117b95760405162461bcd60e51b8152602060048201526024808201527f4552433732313a207472616e7366657220746f20746865207a65726f206164646044820152637265737360e01b60648201526084016105a2565b6117c4600082611589565b6001600160a01b03831660009081526003602052604081208054600192906117ed9084906125fc565b90915550506001600160a01b038216600090815260036020526040812080546001929061181b9084906125d0565b909155505060008181526002602052604080822080546001600160a01b0319166001600160a01b0386811691821790925591518493918716917fddf252ad1be2c89b69c2b068fc378daa952ba7f163c4a11628f55a4df523b3ef91a4505050565b6001600160a01b0382166118d25760405162461bcd60e51b815260206004820181905260248201527f4552433732313a206d696e7420746f20746865207a65726f206164647265737360448201526064016105a2565b6118db8161156c565b156119285760405162461bcd60e51b815260206004820152601c60248201527f4552433732313a20746f6b656e20616c7265616479206d696e7465640000000060448201526064016105a2565b6001600160a01b03821660009081526003602052604081208054600192906119519084906125d0565b909155505060008181526002602052604080822080546001600160a01b0319166001600160a01b03861690811790915590518392907fddf252ad1be2c89b69c2b068fc378daa952ba7f163c4a11628f55a4df523b3ef908290a45050565b6119b88261156c565b611a1b5760405162461bcd60e51b815260206004820152602e60248201527f45524337323155524953746f726167653a2055524920736574206f66206e6f6e60448201526d32bc34b9ba32b73a103a37b5b2b760911b60648201526084016105a2565b600082815260066020908152604090912082516106d892840190612015565b60008111611a8a5760405162461bcd60e51b815260206004820152601c60248201527f5072696365206d757374206265206174206c656173742031207765690000000060448201526064016105a2565b6009543414611aab5760405162461bcd60e51b81526004016105a29061252d565b6040805160a08101825283815233602080830182815230848601818152606086018881526000608088018181528b8252600b909652979097209551865591516001860180546001600160a01b03199081166001600160a01b0393841617909155925160028701805490941691161790915593516003840155516004909201805460ff191692151592909217909155611b4391846116e0565b604080513381523060208201529081018290526000606082015282907fb640004f1d14576d0c209e240cad0410e0d8c0c33a09375861fbadae2588a98d9060800160405180910390a25050565b816001600160a01b0316836001600160a01b03161415611bf25760405162461bcd60e51b815260206004820152601960248201527f4552433732313a20617070726f766520746f2063616c6c65720000000000000060448201526064016105a2565b6001600160a01b03838116600081815260056020908152604080832094871680845294825291829020805460ff191686151590811790915591519182527f17307eab39ab6107e8899845ad3d59bd9653f200f220920489ca2b5937696c31910160405180910390a3505050565b611c6a8484846116e0565b611c7684848484611dc0565b6111d55760405162461bcd60e51b81526004016105a290612491565b6060611c9d8261156c565b611d015760405162461bcd60e51b815260206004820152602f60248201527f4552433732314d657461646174613a2055524920717565727920666f72206e6f60448201526e3732bc34b9ba32b73a103a37b5b2b760891b60648201526084016105a2565b6000611d1860408051602081019091526000815290565b90506000815111611d38576040518060200160405280600081525061106e565b80611d4284611ecd565b604051602001611d539291906123c4565b6040516020818303038152906040529392505050565b805480611db85760405162461bcd60e51b815260206004820152601b60248201527f436f756e7465723a2064656372656d656e74206f766572666c6f77000000000060448201526064016105a2565b600019019055565b60006001600160a01b0384163b15611ec257604051630a85bd0160e11b81526001600160a01b0385169063150b7a0290611e049033908990889088906004016123f3565b602060405180830381600087803b158015611e1e57600080fd5b505af1925050508015611e4e575060408051601f3d908101601f19168201909252611e4b918101906122ad565b60015b611ea8573d808015611e7c576040519150601f19603f3d011682016040523d82523d6000602084013e611e81565b606091505b508051611ea05760405162461bcd60e51b81526004016105a290612491565b805181602001fd5b6001600160e01b031916630a85bd0160e11b1490506114af565b506001949350505050565b606081611ef15750506040805180820190915260018152600360fc1b602082015290565b8160005b8115611f1b5780611f058161267a565b9150611f149050600a836125e8565b9150611ef5565b60008167ffffffffffffffff811115611f4457634e487b7160e01b600052604160045260246000fd5b6040519080825280601f01601f191660200182016040528015611f6e576020820181803683370190505b5090505b84156114af57611f836001836125fc565b9150611f90600a86612695565b611f9b9060306125d0565b60f81b818381518110611fbe57634e487b7160e01b600052603260045260246000fd5b60200101906001600160f81b031916908160001a905350611fe0600a866125e8565b9450611f72565b6040805160a08101825260008082526020820181905291810182905260608101829052608081019190915290565b8280546120219061263f565b90600052602060002090601f0160209004810192826120435760008555612089565b82601f1061205c57805160ff1916838001178555612089565b82800160010185558215612089579182015b8281111561208957825182559160200191906001019061206e565b50612095929150612099565b5090565b5b80821115612095576000815560010161209a565b600067ffffffffffffffff808411156120c9576120c96126d5565b604051601f8501601f19908116603f011681019082821181831017156120f1576120f16126d5565b8160405280935085815286868601111561210a57600080fd5b858560208301376000602087830101525050509392505050565b600060208284031215612135578081fd5b813561106e816126eb565b60008060408385031215612152578081fd5b823561215d816126eb565b9150602083013561216d816126eb565b809150509250929050565b60008060006060848603121561218c578081fd5b8335612197816126eb565b925060208401356121a7816126eb565b929592945050506040919091013590565b600080600080608085870312156121cd578081fd5b84356121d8816126eb565b935060208501356121e8816126eb565b925060408501359150606085013567ffffffffffffffff81111561220a578182fd5b8501601f8101871361221a578182fd5b612229878235602084016120ae565b91505092959194509250565b60008060408385031215612247578182fd5b8235612252816126eb565b91506020830135801515811461216d578182fd5b60008060408385031215612278578182fd5b8235612283816126eb565b946020939093013593505050565b6000602082840312156122a2578081fd5b813561106e81612700565b6000602082840312156122be578081fd5b815161106e81612700565b600080604083850312156122db578182fd5b823567ffffffffffffffff8111156122f1578283fd5b8301601f81018513612301578283fd5b612310858235602084016120ae565b95602094909401359450505050565b600060208284031215612330578081fd5b5035919050565b60008060408385031215612349578182fd5b50508035926020909101359150565b60008151808452612370816020860160208601612613565b601f01601f19169290920160200192915050565b805182526020808201516001600160a01b039081169184019190915260408083015190911690830152606080820151908301526080908101511515910152565b600083516123d6818460208801612613565b8351908301906123ea818360208801612613565b01949350505050565b6001600160a01b038581168252841660208201526040810183905260806060820181905260009061242690830184612358565b9695505050505050565b6020808252825182820181905260009190848201906040850190845b818110156124725761245f838551612384565b9284019260a0929092019160010161244c565b50909695505050505050565b60208152600061106e6020830184612358565b60208082526032908201527f4552433732313a207472616e7366657220746f206e6f6e20455243373231526560408201527131b2b4bb32b91034b6b83632b6b2b73a32b960711b606082015260800190565b6020808252602a908201527f4f6e6c79206974656d206f776e65722063616e20706572666f726d20746869736040820152691037b832b930ba34b7b760b11b606082015260800190565b60208082526024908201527f5072696365206d75737420626520657175616c20746f206c697374696e6720706040820152637269636560e01b606082015260800190565b60208082526031908201527f4552433732313a207472616e736665722063616c6c6572206973206e6f74206f6040820152701ddb995c881b9bdc88185c1c1c9bdd9959607a1b606082015260800190565b60a081016104a28284612384565b600082198211156125e3576125e36126a9565b500190565b6000826125f7576125f76126bf565b500490565b60008282101561260e5761260e6126a9565b500390565b60005b8381101561262e578181015183820152602001612616565b838111156111d55750506000910152565b600181811c9082168061265357607f821691505b6020821081141561267457634e487b7160e01b600052602260045260246000fd5b50919050565b600060001982141561268e5761268e6126a9565b5060010190565b6000826126a4576126a46126bf565b500690565b634e487b7160e01b600052601160045260246000fd5b634e487b7160e01b600052601260045260246000fd5b634e487b7160e01b600052604160045260246000fd5b6001600160a01b038116811461112857600080fd5b6001600160e01b03198116811461112857600080fdfea264697066735822122090bd2f3f758e31e066bcaaf03b0b01c4187cf3359f479a97ea089b51b300399664736f6c63430008040033",
  "linkReferences": {},
  "deployedLinkReferences": {}
}